:020000040000FA
:10000000830100308A00042883168F308100640049
:100010008B018C018D010030860087008900F8304B
:100020008500003088000F3081009F019F141F154C
:100030008312BB01BC01BD01BE01BF01C10187012B
:100040008801013026210F302E216400383026210E
:100050000F302E21063026210F302E210C30262184
:100060000F302E213130B9003030B000B100B20075
:10007000B300B400B500B700B800BA000030B60055
:10008000C200D0000030C0000030C2003108C600FD
:100090003008C5003308C8003208C7003508CA0058
:1000A0003408C9003608CB000030C3003708CC0044
:1000B0003808CD003908CE003A08CF002A223B1874
:1000C00009213C1812213D181C214821B40A3A305C
:1000D0003406031D9C283030B400B50A363035068E
:1000E000031D9C283030B500B20A3A303206031D99
:1000F0009C283030B200B30A36303306031D9C28EA
:100100003030B300B00A34303006031D9528323049
:100110003106031D95283030B000B100B60A073013
:100120003606031D9C280030B6003A303006031D09
:100130009C28B10A3030B000640001305006031929
:10014000C028A228303034060319A728CC28303024
:1001500035060319AC28CC28310838060319B12814
:10016000CC28300837060319B628CC2833083A06BD
:100170000319BB28CC28320839060319C028CC281B
:100180000130C200C7280030D000C200CC282A228B
:100190003F18C3280130D000C221382144288207EB
:1001A000D828DF28E628ED28F428FB2802290800B3
:1001B0004D3026214F3026214E302621082954303B
:1001C0002621553026214530262108295730262161
:1001D0004530262144302621082954302621483034
:1001E0002621553026210829463026215230262145
:1001F0004930262108295330262141302621543008
:100200002621082953302621553026214E3026211B
:10021000080001302E212A22C108031D0929C30A22
:100220005C2A080001302E212A22C108031D122950
:100230000830C300312B080001302E212A22C108CA
:10024000031D1C290930C300692B08000313831206
:100250008600071501302E210711080003138312B1
:10026000A700A6016400A60B3229A70B32290800BB
:10027000FE30A3001130A4000630A500A30B3E29D8
:100280006400A40B3E29A50B3E29000000000800D5
:1002900007108030262107145C216A213A3026217C
:1002A000782186213A3026219421A221203026214E
:1002B00020302621B021080001304306031D6729A4
:1002C000C00A401C67296429203026216929310889
:1002D0002621080002304306031D7529C00A401C70
:1002E0007529722920302621772930082621080017
:1002F00003304306031D8329C00A401C832980293B
:1003000020302621852933082621080004304306A1
:10031000031D9129C00A401C91298E2920302621D5
:10032000932932082621080005304306031D9F2922
:10033000C00A401C9F299C2920302621A12935086C
:100340002621080006304306031DAD29C00A401CC3
:10035000AD29AA2920302621AF29340826210800FA
:1003600008304306031DBF29C00A401CBF29B82915
:10037000203026212030262120302621C129360890
:10038000CF2008000710C430262107140A2220308D
:10039000262120302621D221E0213A302621EE21CB
:1003A000FC21080009304306031DDD29C00A401C5A
:1003B000DD29DA2920302621DF2938082621080006
:1003C0000A304306031DEB29C00A401CEB29E8292B
:1003D00020302621ED293708262108000B3043065E
:1003E000031DF929C00A401CF929F62920302621CD
:1003F000FB293A08262108000C304306031D072A72
:10040000C00A401C072A042A20302621092A39085C
:100410002621080001304206031D1E2AC00A401C86
:100420001E2A122A88102030262120302621203032
:1004300026212030262120302621292A88144130E7
:1004400026214C30262141302621523026214D30A4
:100450002621080083120313BB01BC01BD01BE01AC
:10046000BF01C101051485100511050838390319AC
:100470003D2A8519BB0A051ABE0A05108514051107
:10048000050838390319462A8519BC0A0510851054
:100490000515050838390319512A8519BD0A851A29
:1004A000BF0A3B18C10A3C18C10A3D18C10A3E18D0
:1004B000C10A3F18C10A08002A223B1868223C18CA
:1004C000BD223D18122B3E181E2B482138215C2AD4
:1004D00001302E212A22C108031D682A013043065B
:1004E000031987220230430603198F220330430683
:1004F00003199D22043043060319A5220530430643
:100500000319AD22063043060319B5220800B10ACB
:1005100033303106031D8E2A3030B1000800B00A96
:100520003230310603199B2A3A303006031D9A2ACD
:100530003030B00008003430952AB30A3630330624
:10054000031DA42A3030B3000800B20A3A30320644
:10055000031DAC2A3030B2000800B50A363035062B
:10056000031DB42A3030B5000800B40A3A3034060E
:10057000031DBC2A3030B400080001302E212A228D
:10058000C108031DBD2A013043060319DC220230D5
:1005900043060319E422033043060319F222043010
:1005A00043060319FA2205304306031902230630D5
:1005B000430603190A230800B1032F303106031D37
:1005C000E32A3230B1000800B0032F303006031D9B
:1005D000EF2A323031060319F02A3930B000080012
:1005E0003330EE2AB3032F303306031DF92A35309A
:1005F000B3000800B2032F303206031D012B39303F
:10060000B2000800B5032F303506031D092B353025
:10061000B5000800B4032F303406031D112B393008
:10062000B400080001302E212A22C108031D122B1C
:100630000630430603194428C30A5C2A01302E21E0
:100640002A22C108031D1E2B4608B1004508B00030
:100650004808B3004708B2004A08B5004908B4008A
:1006600044282A223B183D2B3C184B2B3D18622B6B
:100670003E18592B48213821312B01302E212A22B6
:10068000C108031D3D2BB60A07303606031D312B6A
:100690000030B600312B01302E212A22C108031D63
:1006A0004B2BB603FF303606031D312B0630B60048
:1006B000312B01302E212A22C108031D592B4B0852
:1006C000B600442801302E212A22C108031D622BC6
:1006D00044282A223B1875233C18B2233D18EF2BDF
:1006E0003E18FB2BC2213821692B01302E212A22F2
:1006F000C108031D752B0930430603198C230A30EA
:100700004306031994230B3043060319A2230C302C
:1007100043060319AA230800B80A33303806031D1C
:10072000932B3030B8000800B70A3230380603196E
:10073000A02B3A303706031D9F2B3030B70008003E
:1007400034309A2BBA0A36303A06031DA92B3030C2
:10075000BA000800B90A3A303906031DB12B30300F
:10076000B900080001302E212A22C108031DB22B36
:10077000093043060319C9230A3043060319D1235C
:100780000B3043060319DF230C3043060319E7231C
:100790000800B8032F303806031DD02B3230B800C4
:1007A0000800B7032F303706031DDC2B3230380624
:1007B0000319DD2B3930B70008003330DB2BBA03C7
:1007C0002F303A06031DE62B3530BA000800B90376
:1007D0002F303906031DEE2B3930B90008000130E7
:1007E0002E212A22C108031DEF2B0D3043060319C9
:1007F0004428C30A692B01302E212A22C108031D77
:10080000FB2B4D08B8004C08B7004F08BA004E0843
:04081000B9004428BF
:040814000034003478
:00000001FF
