:020000040000FA
:10000000830100308A00042883168F308100640049
:100010008B018C018D010030860087008900F8304B
:100020008500003088000F3081009F019F141F154C
:100030008312BB01BC01BD01BE01C3018701880160
:100040000130E4200F30EC2064003830E4200F3021
:10005000EC200630E4200F30EC200C30E4200F3090
:10006000EC203030B000B100B200B300B400B500F5
:10007000B700B800B900BA000030B6000030D100B7
:100080003108C6003008C5003308C8003208C70070
:100090003508CA003408C9003608CB000030D0004B
:1000A0003708CC003808CD003908CE003A08CF0018
:1000B000C1213B18D9203C18DC203D18E020F62057
:1000C000B40A3A303406031D96283030B400B50A1D
:1000D00036303506031D96283030B500B20A3A3066
:1000E0003206031D96283030B200B30A363033068C
:1000F000031D96283030B300B00A34303006031D9B
:100100008F2832303106031D8F283030B000B10007
:10011000B60A07303606031D96280030B6003A307E
:100120003006031D9628B10A3030B0006400FF305D
:10013000EC20FF30EC20FF30EC20702140288207BB
:10014000A828AF28B628BD28C428CB28D228080064
:100150004D30E4204F30E4204E30E420D828543095
:10016000E4205530E4204530E420D8285730E420FE
:100170004530E4204430E420D8285430E42048308E
:10018000E4205530E420D8284630E4205230E420E2
:100190004930E420D8285330E4204130E420543062
:1001A000E420D8285330E4205530E4204E30E420B9
:1001B0000800D00AE82908000830D000B02A08005A
:1001C0000930D000D62A08000313831286000715D1
:1001D0000130EC200711080003138312A700A601C9
:1001E0006400A60BF028A70BF02808000710803049
:1001F000E42007140A2118213A30E4202621342172
:100200003A30E420422150212030E4202030E42004
:100210005E21080001305006031D1529D10A511C2A
:10022000152912292030E42008003108E4200800B4
:1002300002305006031D2329D10A511C23292029ED
:100240002030E42008003008E42008000330500685
:10025000031D3129D10A511C31292E292030E420D7
:1002600008003308E420080004305006031D3F292D
:10027000D10A511C3F293C292030E42008003208D3
:10028000E420080005305006031D4D29D10A511CF9
:100290004D294A292030E42008003508E4200800D0
:1002A00006305006031D5B29D10A511C5B295829D1
:1002B0002030E42008003408E4200800083050060C
:1002C000031D6D29D10A511C6D2966292030E420B7
:1002D0002030E4202030E420080036089F20080069
:1002E0000710C430E42007144130E4204C30E420EF
:1002F0004130E4205230E4204D30E4202030E4202E
:100300002030E420892197213A30E420A521B3212F
:1003100008000A305006031D9429D10A511C942963
:1003200091292030E42008003808E42008000B3030
:100330005006031DA229D10A511CA2299F29203051
:10034000E42008003708E42008000C305006031DA4
:10035000B029D10A511CB029AD292030E420080071
:100360003A08E42008000D305006031DBE29D10ACA
:10037000511CBE29BB292030E42008003908E420A4
:10038000080083120313BB01BC01BD01BE01C30100
:10039000051485100511050838390319D329851965
:1003A000BB0A051ABE0A051085140511050838395F
:1003B0000319DC298519BC0A0510851005150508E7
:1003C0003839031908008519BD0A851AC30A0800BF
:1003D000C1213B18F3213C1846223D18992A3E18AA
:1003E000A32AF620E829FF30EC20FF30EC20013072
:1003F0005006031910220230500603191822033048
:100400005006031926220430500603192E22053007
:100410005006031936220630500603193E22080002
:10042000B10A33303106031D08003030B100080036
:10043000B00A323031060319242A3A303006031D3F
:1004400008003030B000080034301E2AB30A3630BD
:100450003306031D08003030B3000800B20A3A30FA
:100460003206031D08003030B2000800B50A3630ED
:100470003506031D08003030B5000800B40A3A30D4
:100480003406031D08003030B4000800FF30EC20B3
:10049000FF30EC2001305006031963220230500671
:1004A00003196B22033050060319792204305006D9
:1004B000031981220530500603198922063050069F
:1004C000031991220800B1032F303106031D0800E3
:1004D0003230B1000800B0032F303006031D080091
:1004E000323031060319772A3930B0000800333032
:1004F000752AB3032F303306031D08003530B300CF
:100500000800B2032F303206031D08003930B20054
:100510000800B5032F303506031D08003530B5003F
:100520000800B4032F303406031D08003930B4002E
:100530000800FF30EC20FF30EC2006305006031995
:100540004028D00AE8294608B1004508B00048080C
:10055000B3004708B2004A08B5004908B400402873
:10056000C1213B18BB2A3C18C72A3D1840283E1819
:10057000D32AF620B02AFF30EC20FF30EC20B60A58
:1005800007303606031DB02A0030B600B02AFF300F
:10059000EC20FF30EC20B603FF303606031DB02AF6
:1005A0000630B600B02A4B08B6004028C1213B18DF
:1005B000E1223C181C233D18572B3E18612B70215B
:1005C000D62AFF30EC20FF30EC200A305006031909
:1005D000F6220B3050060319FE220C305006031988
:1005E0000C230D305006031914230800B80A3330C9
:1005F0003806031D08003030B8000800B70A323052
:10060000380603190A2B3A303706031D080030302C
:10061000B70008003430042BBA0A36303A06031DFE
:1006200008003030BA000800B90A3A303906031D14
:1006300008003030B9000800FF30EC20FF30EC201B
:100640000A305006031931230B30500603193923A1
:100650000C305006031947230D30500603194F2361
:100660000800B8032F303806031D08003230B800E8
:100670000800B7032F303706031D08003230380654
:100680000319452B3930B70008003330432BBA0328
:100690002F303A06031D08003530BA000800B903B0
:1006A0002F303906031D08003930B9000800FF302B
:1006B000EC20FF30EC200E30500603194028D00A01
:1006C000D62A4D08B8004C08B7004F08BA004E08AB
:0406D000B900402805
:0406D40000340034BA
:00000001FF
