:020000040000FA
:10000000830100308A00042883168F308100640049
:100010008B018C018D010030860087008900F8304B
:100020008500003088000F3081009F019F141F154C
:100030008312BB01BC01BD01BE01BF01C001C101F2
:10004000C201C301870188010130BB200F30C320EA
:1000500064003830BB200F30C3200630BB200F3087
:10006000C3200C30BB200F30C3203330B0003230FF
:10007000B1003930B2003530B3003030B400B500D3
:10008000B700B800B900BA000030B6000721071069
:100090008030BB2007143108BB203008BB203A3029
:1000A000BB203308BB203208BB203A30BB203508C8
:1000B000BB203408BB202030BB202030BB203608BA
:1000C000CD20B40A3A303406031D97283030B400EE
:1000D000B50A36303506031D97283030B500B20A10
:1000E0003A303206031D97283030B200B30A36305A
:1000F0003306031D97283030B300B00A3430300681
:10010000031D902832303106031D90283030B00096
:10011000B100B60A07303606031D97280030B60036
:100120003A303006031D9728B10A3030B000640021
:10013000FF30C320FF30C320FF30C3200710C4307E
:10014000BB2007144130BB204C30BB204130BB20CA
:100150005230BB204D30BB202030BB202030BB2094
:100160003808BB203708BB203A30BB203A08BB20F8
:100170003908BB2046280313831286000715013077
:10018000C3200711080003138312A700A60164000F
:10019000A60BC728A70BC72808008207D628DD288A
:1001A000E428EB28F228F928002908004D30BB206C
:1001B0004F30BB204E30BB2006295430BB20553079
:1001C000BB204530BB2006295730BB204530BB2023
:1001D0004430BB2006295430BB204830BB2055306A
:1001E000BB2006294630BB205230BB204930BB2003
:1001F00006295330BB204130BB205430BB20062998
:100200005330BB205530BB204E30BB20080083123A
:100210000313BB01BC01BD01BE01BF01C001C1018F
:10022000C201C301051485100511183047210508C6
:10023000383903192329FA3047218519BB0A051AD1
:10024000BE0A851AC10A0510851405111830472108
:100250000508383903193429FA3047218519BC0AB1
:10026000051ABF0A851AC20A05108510051518302F
:1002700047210508383903190800FA304721851944
:10028000BD0A051AC00A851AC30A08004628C40018
:080290006400C40B48290800BA
:0402980000340034FA
:00000001FF
