:020000040000FA
:10000000830100308A00042883168F308100640049
:100010008B018C018D010030860087008900F8304B
:100020008500003088000F3081009F019F141F154C
:100030008312BB01BC01BD01BE01C3018701880160
:100040000130D2200F30DA2064003830D2200F3057
:10005000DA200630D2200F30DA200C30D2200F30D8
:10006000DA203030B000B100B200B300B400B50007
:10007000B700B800B900BA000030B6000030D100B7
:100080003108C6003008C5003308C8003208C70070
:100090003508CA003408C9003608CB000030D0004B
:1000A0006A213B18CF203C18592AE420B40A3A3080
:1000B0003406031D8C283030B400B50A36303506BE
:1000C000031D8C283030B500B20A3A303206031DC9
:1000D0008C283030B200B30A36303306031D8C282A
:1000E0003030B300B00A34303006031D852832307A
:1000F0003106031D85283030B000B100B60A073044
:100100003606031D8C280030B6003A303006031D39
:100110008C28B10A3030B0006400FF30DA20FF30A4
:10012000DA20FF30DA204D21402882079E28A528BA
:10013000AC28B328BA28C128C82808004D30D220DE
:100140004F30D2204E30D220CE285430D2205530DD
:10015000D2204530D220CE285730D2204530D22070
:100160004430D220CE285430D2204830D2205530CE
:10017000D220CE284630D2205230D2204930D22050
:10018000CE285330D2204130D2205430D220CE2835
:100190005330D2205530D2204E30D2200800D00A21
:1001A0009129080003138312860007150130DA2015
:1001B0000711080003138312A700A6016400A60B11
:1001C000DE28A70BDE28080007108030D220071495
:1001D000F92007213A30D220152123213A30D220AC
:1001E00031213F212030D2202030D22036089520E6
:1001F000080001305006031D0429D10A511C0429AE
:1002000001292030D22008003108D2200800023015
:100210005006031D1229D10A511C12290F29203022
:10022000D22008003008D220080003305006031DF9
:100230002029D10A511C20291D292030D220080054
:100240003308D220080004305006031D2E29D10A9D
:10025000511C2E292B292030D22008003208D22010
:10026000080005305006031D3C29D10A511C3C29C9
:1002700039292030D22008003508D2200800063065
:100280005006031D4A29D10A511C4A29472920300A
:10029000D22008003408D22008000710C430D22031
:1002A00007144130D2204C30D2204130D22052307D
:1002B000D2204D30D2202030D2202030D220380819
:1002C000D2203708D2203A30D2203A08D22039083A
:1002D000D220080083120313BB01BC01BD01BE0183
:1002E000C3010514851005110508383903197C2947
:1002F0008519BB0A051ABE0A0510851405110508E3
:100300003839031985298519BC0A0510851005158A
:1003100005083839031908008519BD0A851AC30A6A
:1003200008006A213B189C213C18EF213D18422A05
:100330003E184C2AE4209129FF30DA20FF30DA20E1
:10034000013050060319B921023050060319C121AA
:10035000033050060319CF21043050060319D7216A
:10036000053050060319DF21063050060319E72136
:100370000800B10A33303106031D08003030B100E7
:100380000800B00A323031060319CD293A30300660
:10039000031D08003030B00008003430C729B30A0C
:1003A00036303306031D08003030B3000800B20AAF
:1003B0003A303206031D08003030B2000800B50A9A
:1003C00036303506031D08003030B5000800B40A89
:1003D0003A303406031D08003030B4000800FF3006
:1003E000DA20FF30DA200130500603190C220230E7
:1003F0005006031914220330500603192222043038
:10040000500603192A2205305006031932220630FD
:10041000500603193A220800B1032F303106031D9C
:1004200008003230B1000800B0032F303006031D41
:100430000800323031060319202A3930B000080094
:1004400033301E2AB3032F303306031D0800353026
:10045000B3000800B2032F303206031D0800393004
:10046000B2000800B5032F303506031D08003530F3
:10047000B5000800B4032F303406031D08003930DE
:10048000B4000800FF30DA20FF30DA2006305006D2
:1004900003194028D00A91294608B1004508B00048
:1004A0004808B3004708B2004A08B5004908B4003C
:1004B00040286A213B18672A3C18732A3E184028B6
:1004C00007108A30D22007144B089520592AFF3094
:1004D000DA20FF30DA20CB0A07304B06031D592AF9
:1004E0000030CB00592AFF30DA20FF30DA20CB0A67
:0E04F00000304B06031D592A0630CB00592A56
:0204FE000034C8
:020500000034C5
:00000001FF
