:020000040000FA
:10000000830100308A00042883168F308100640049
:100010008B018C018D010030860087008900F8304B
:100020008500003088000F3081009F019F141F154C
:100030008312BB01BC01BD01BE01BF01C10187012B
:100040008801013033210F303B21640038303321E7
:100050000F303B21063033210F303B210C30332150
:100060000F303B213630B7003030B500B400B90056
:10007000B500B000B100B200B300B800BA00003063
:10008000B600C200D0000030C0000030C20031080D
:10009000C6003008C5003308C8003208C70035085C
:1000A000CA003408C9003608CB000030C300370846
:1000B000CC003808CD003908CE003A08CF006822BD
:1000C0003B1816213C181F213D1829218521B40A0F
:1000D0003A303406031DA2283030B400B50A363059
:1000E0003506031DA3283030B500B20A3A30320677
:1000F000031DA4283030B200B30A36303306031D86
:10010000A5283030B300B00A34303006031D9728DC
:1001100032303106031D99283030B000B100B60AE4
:1001200007303606031DA8280030B600A9280000B5
:100130009A289A283A303006031DA728B10A303091
:10014000B000A9280000000000000000000000002E
:10015000000064000130500603197E293030340657
:100160000319B3287729303035060319B8287029C8
:10017000310838060319BD286929300837060319E4
:10018000C228622933083A060319C7285B293208B6
:1001900039060319CC2854290130C200D328003075
:1001A000D000C200D92868223F18CF280130D000E3
:1001B0000000FF21452145288207E528EC28F32887
:1001C000FA28012908290F2908004D3033214F3022
:1001D00033214E303321152954303321553033210A
:1001E00045303321152957303321453033214430F0
:1001F00033211529543033214830332155303321F0
:100200001529463033215230332149303321152905
:1002100053303321413033215430332115295330A9
:100220003321553033214E303321080001303B213A
:100230006822C108031D1629C30A9C2A0800013040
:100240003B216822C108031D1F290830C300712B00
:10025000080001303B216822C108031D292909300B
:10026000C300A92B08000313831286000715013071
:100270003B210711080003138312A700A6016400A5
:10028000A60B3F29A70B3F290800A230A300EC30A2
:10029000A4000530A500A30B4B296400A40B4B2937
:1002A000A50B4B29000008001430A300A30B56290E
:1002B00064000000D9281630A300A30B5D29640058
:1002C0000000D9281830A300A30B642964000000A3
:1002D000D9281A30A300A30B6B2964000000D92889
:1002E0001C30A300A30B722964000000D9281E3023
:1002F000A300A30B792964000000D9282130A300B2
:10030000A30B802964000000CC2807108030332123
:1003100007149921A7213A303321B521C3213A305E
:100320003321D121DF212030332120303321ED2131
:10033000080001304306031DA429C00A401CA4295B
:10034000A12920303321A6293108332108000230A9
:100350004306031DB229C00A401CB229AF29203030
:100360003321B42930083321080003304306031D2C
:10037000C029C00A401CC029BD2920303321C22910
:1003800033083321080004304306031DCE29C00A78
:10039000401CCE29CB2920303321D02932083321EB
:1003A000080005304306031DDC29C00A401CDC2977
:1003B000D92920303321DE293508332108000630C1
:1003C0004306031DEA29C00A401CEA29E729203018
:1003D0003321EC2934083321080008304306031D7B
:1003E000FC29C00A401CFC29F5292030332120308B
:1003F000332120303321FE293608DC200800071085
:10040000C4303321071447222030332120303321D8
:100410000F221D223A3033212B22392208000930C5
:100420004306031D1A2AC00A401C1A2A172A203024
:1004300033211C2A3808332108000A304306031DE3
:10044000282AC00A401C282A252A203033212A2A9B
:100450003708332108000B304306031D362AC00A33
:10046000401C362A332A20303321382A3A083321D7
:1004700008000C304306031D442AC00A401C442ACD
:10048000412A20303321462A39083321080001301F
:100490004206031D5B2AC00A401C5C2A4F2A8810B2
:1004A00020303321203033212030332120303321BC
:1004B00020303321672A00008814413033214C302A
:1004C000332141303321523033214D303321080064
:1004D00083120313BB01BC01BD01BE01BF01C101F9
:1004E0000514851005110508383903197B2A85196B
:1004F000BB0A051ABE0A051085140511050838390E
:100500000319842A8519BC0A0510851005150508EC
:1005100038390319902A8519BD0A851ABF0A912A0C
:1005200000003B18C10A3C18C10A3D18C10A3E1818
:10053000C10A3F18C10A080068223B18A8223C18CB
:10054000FD223D18522B3E185E2B852145219C2A09
:1005500001303B216822C108031DA82A013043064F
:100560000319C722023043060319CF220330430682
:100570000319DD22043043060319E5220530430642
:100580000319ED22063043060319F5220800B10ACB
:1005900033303106031DCE2A3030B1000800B00AD6
:1005A000323031060319DB2A3A303006031DDA2ACD
:1005B0003030B00008003430D52AB30A3630330664
:1005C000031DE42A3030B3000800B20A3A30320684
:1005D000031DEC2A3030B2000800B50A363035066B
:1005E000031DF42A3030B5000800B40A3A3034064E
:1005F000031DFC2A3030B400080001303B21682282
:10060000C108031DFD2A0130430603191C230230D3
:10061000430603192423033043060319322304300D
:10062000430603193A2305304306031942230630D3
:10063000430603194A230800B1032F303106031D76
:10064000232B3230B1000800B0032F303006031DD9
:100650002F2B323031060319302B3930B00008000F
:1006600033302E2BB3032F303306031D392B353097
:10067000B3000800B2032F303206031D412B39307E
:10068000B2000800B5032F303506031D492B353065
:10069000B5000800B4032F303406031D512B393048
:1006A000B400080001303B216822C108031D522B11
:1006B0000630430603194528C30A9C2A01303B2112
:1006C0006822C108031D5E2B4608B1004508B00032
:1006D0004808B3004708B2004A08B5004908B4000A
:1006E000452868223B187D2B3C188B2B3D18A22BEC
:1006F0003E18992B85214521712B01303B21682221
:10070000C108031D7D2BB60A07303606031D712B69
:100710000030B600712B01303B216822C108031D57
:100720008B2BB603FF303606031D712B0630B60047
:10073000712B01303B216822C108031D992B4B0806
:10074000B600452801303B216822C108031DA22BB9
:10075000452868223B18B5233C18F2233D182F2C5E
:100760003E183B2CFF214521A92B01303B2168225B
:10077000C108031DB52B093043060319CC230A30E9
:1007800043060319D4230B3043060319E2230C302C
:1007900043060319EA230800B80A33303806031D5C
:1007A000D32B3030B8000800B70A323038060319AE
:1007B000E02B3A303706031DDF2B3030B70008003E
:1007C0003430DA2BBA0A36303A06031DE92B3030C2
:1007D000BA000800B90A3A303906031DF12B30304F
:1007E000B900080001303B216822C108031DF22B2B
:1007F00009304306031909240A304306031911245A
:100800000B30430603191F240C3043060319272419
:100810000800B8032F303806031D102C3230B80002
:100820000800B7032F303706031D1C2C3230380662
:1008300003191D2C3930B700080033301B2CBA03C4
:100840002F303A06031D262C3530BA000800B903B4
:100850002F303906031D2E2C3930B9000800013025
:100860003B216822C108031D2F2C0D3043060319BC
:100870004528C30AA92B01303B216822C108031D6A
:100880003B2C4D08B8004C08B7004F08BA004E0882
:04089000B90045283E
:0408940000340034F8
:00000001FF
