:020000040000FA
:10000000830100308A00042883168F308100640049
:100010008B018C018D010030860087008900F8304B
:100020008500003088000F3081009F019F141F154C
:100030008312BB01BC01BD01BE01BF01C001C101F2
:10004000C201C301870188010130C9200F30D120CE
:1000500064003830C9200F30D1200630C9200F305D
:10006000D1200C30C9200F30D1203030B000B10089
:10007000B200B300B400B500B700B800B900BA00D0
:100080000030B6003030D000C500C600C700C80040
:10009000C900CA00CC00CD00CE00CF000030CB009C
:1000A00038213B18DB203C18FD2007108030C92088
:1000B00007143108C9203008C9203A30C920330854
:1000C000C9203208C9203A30C9203508C92034086F
:1000D000C9202030C9202030C9203608FE20B40AAB
:1000E0003A303406031DA5283030B400B50A363046
:1000F0003506031DA5283030B500B20A3A30320665
:10010000031DA5283030B200B30A36303306031D74
:10011000A5283030B300B00A34303006031D9E28C5
:1001200032303106031D9E283030B000B100B60ACF
:1001300007303606031DA5280030B6003A303006D9
:10014000031DA528B10A3030B0006400FF30D12073
:10015000FF30D120FF30D1200710C430C920071450
:100160004130C9204C30C9204130C9205230C9200B
:100170004D30C9202030C9202030C9203808C9207E
:100180003708C9203A30C9203A08C9203908C9209F
:10019000422803138312860007150130D12007116E
:1001A000080003138312A700A6016400A60BD5283C
:1001B000A70BD52808003821FF30D120FF30D120EF
:1001C0003B1861213C18B0213D18FF293E184228F8
:1001D00007108030C92007144608C9204508C920E7
:1001E0003A30C9204808C9204708C9203A30C920F8
:1001F0004A08C9204908C920DB28FD2882070729A9
:100200000E2915291C2923292A29312908004D30B6
:10021000C9204F30C9204E30C92037295430C92059
:100220005530C9204530C92037295730C9204530BD
:10023000C9204430C92037295430C9204830C9204A
:100240005530C92037294630C9205230C92049309D
:10025000C92037295330C9204130C9205430C92022
:1002600037295330C9205530C9204E30C9200800E5
:1002700083120313BB01BC01BD01BE01BF01C0015C
:10028000C101C201C30105148510051105083839E3
:1002900003194E298519BB0A051ABE0A05108514D3
:1002A000051105083839031957298519BC0A0510A5
:1002B0008510051505083839031908008519BD0A88
:1002C00008003030500603197A21313050060319E6
:1002D0008221323050060319902133305006031921
:1002E0009821343050060319A021353050060319E7
:1002F000A8210800C60A33304606031D0800303026
:10030000C6000800C50A3230460603198E293A3065
:100310004506031D08003030C50008003430882928
:10032000C80A36304806031D08003030C8000800EF
:10033000C70A3A304706031D08003030C7000800DE
:10034000CA0A36304A06031D08003030CA000800C9
:10035000C90A3A304906031D08003030C9000800B8
:10036000303050060319C921313050060319D1210C
:10037000323050060319DF21333050060319E721CC
:10038000343050060319EF21353050060319F72198
:100390000800C6032F304606031D08003230C60091
:1003A0000800C5032F304506031D080032304606FD
:1003B0000319DD293930C50008003330DB29C803B3
:1003C0002F304806031D08003530C8000800C70359
:1003D0002F304706031D08003930C7000800CA0344
:1003E0002F304A06031D08003530CA000800C90333
:1003F0002F304906031D08003930C9000800363087
:1004000050060319052AD00ADB284608B100450822
:10041000B0004808B3004708B2004A08B5004908D0
:10042000B40042284228C4006400C40B142A080007
:040430000034003460
:00000001FF
