:020000040000FA
:10000000830100308A00042883168F308100640049
:100010008B018C018D010030860087008900F8304B
:100020008500003088000F3081009F019F141F154C
:100030008312BB01BC01BD01BE01C3018701880160
:100040000130D6200F30DE2064003830D6200F304B
:10005000DE200630D6200F30DE200C30D6200F30C8
:10006000DE203030B000B100B200B300B400B50003
:10007000B700B800B900BA000030B6000030D100B7
:100080003108C6003008C5003308C8003208C70070
:100090003508CA003408C9003608CB000030D0004B
:1000A0007F213B18CF203C18D220E820B40A3A30F8
:1000B0003406031D8C283030B400B50A36303506BE
:1000C000031D8C283030B500B20A3A303206031DC9
:1000D0008C283030B200B30A36303306031D8C282A
:1000E0003030B300B00A34303006031D852832307A
:1000F0003106031D85283030B000B100B60A073044
:100100003606031D8C280030B6003A303006031D39
:100110008C28B10A3030B0006400FF30DE20FF30A0
:10012000DE20FF30DE206221402882079E28A5289D
:10013000AC28B328BA28C128C82808004D30D620DA
:100140004F30D6204E30D620CE285430D6205530D1
:10015000D6204530D620CE285730D6204530D62060
:100160004430D620CE285430D6204830D6205530C2
:10017000D620CE284630D6205230D6204930D62040
:10018000CE285330D6204130D6205430D620CE2829
:100190005330D6205530D6204E30D6200800D00A15
:1001A000A62908000830D0006E2A08000313831225
:1001B000860007150130DE200711080003138312A3
:1001C000A700A6016400A60BE228A70BE2280800FE
:1001D00007108030D6200714FC200A213A30D620A0
:1001E000182126213A30D620342142212030D62031
:1001F0002030D6205021080001305006031D072969
:10020000D10A511C072904292030D62008003108C2
:10021000D620080002305006031D1529D10A511CB2
:10022000152912292030D62008003008D6200800D1
:1002300003305006031D2329D10A511C23292029EC
:100240002030D62008003308D6200800043050069D
:10025000031D3129D10A511C31292E292030D620E5
:1002600008003208D620080005305006031D3F293B
:10027000D10A511C3F293C292030D62008003508DE
:10028000D620080006305006031D4D29D10A511C06
:100290004D294A292030D62008003408D6200800ED
:1002A00008305006031D5F29D10A511C5F295829C7
:1002B0002030D6202030D6202030D6200800360826
:1002C000952008000710C430D62007144130D620EE
:1002D0004C30D6204130D6205230D6204D30D6205A
:1002E0002030D6202030D6203808D6203708D62017
:1002F0003A30D6203A08D6203908D6200800831292
:100300000313BB01BC01BD01BE01C301051485106F
:10031000051105083839031991298519BB0A051AF1
:10032000BE0A0510851405110508383903199A29E4
:100330008519BC0A051085100515050838390319FB
:1003400008008519BD0A851AC30A08007F213B18D9
:10035000B1213C1804223D18572A3E18612AE82092
:10036000A629FF30DE20FF30DE20013050060319C1
:10037000CE21023050060319D6210330500603194E
:10038000E421043050060319EC210530500603190E
:10039000F421063050060319FC210800B10A33305D
:1003A0003106031D08003030B1000800B00A3230B9
:1003B00031060319E2293A303006031D08003030B7
:1003C000B00008003430DC29B30A36303306031D90
:1003D00008003030B3000800B20A3A303206031D7C
:1003E00008003030B2000800B50A36303506031D6B
:1003F00008003030B5000800B40A3A303406031D56
:1004000008003030B4000800FF30DE20FF30DE206E
:100410000130500603192122023050060319292207
:1004200003305006031937220430500603193F22C7
:1004300005305006031947220630500603194F2293
:100440000800B1032F303106031D08003230B1001F
:100450000800B0032F303006031D0800323031068B
:100460000319352A3930B00008003330332AB3037A
:100470002F303306031D08003530B3000800B203E7
:100480002F303206031D08003930B2000800B503D2
:100490002F303506031D08003530B5000800B403C1
:1004A0002F303406031D08003930B4000800FF3037
:1004B000DE20FF30DE200630500603194028D00A27
:1004C000A6294608B1004508B0004808B30047080F
:1004D000B2004A08B5004908B40040287F213B1803
:1004E000792A3C18852A3D1840283E18912AE82090
:1004F0006E2AFF30DE20FF30DE20B60A07303606D7
:10050000031D6E2A0030B6006E2AFF30DE20FF3059
:10051000DE20B603FF303606031D6E2A0630B60015
:080520006E2A4B08B6004028CA
:040528000034003467
:00000001FF
