:020000040000FA
:10000000830100308A00042883168F308100640049
:100010008B018C018D010030860087008900F8304B
:100020008500003088000F3081009F019F141F154C
:100030008312BB01BC01BD01BE01BF01C10187012B
:100040008801013033210F303B21640038303321E7
:100050000F303B21063033210F303B210C30332150
:100060000F303B213630B7003030B500B400B90056
:10007000B500B000B100B200B300B800BA00003063
:10008000B600C200D0000030C0000030C20031080D
:10009000C6003008C5003308C8003208C70035085C
:1000A000CA003408C9003608CB000030C300370846
:1000B000CC003808CD003908CE003A08CF006722BE
:1000C0003B1816213C181F213D1829218421B40A10
:1000D0003A303406031DA2283030B400B50A363059
:1000E0003506031DA3283030B500B20A3A30320677
:1000F000031DA4283030B200B30A36303306031D86
:10010000A5283030B300B00A34303006031D9728DC
:1001100032303106031D99283030B000B100B60AE4
:1001200007303606031DA8280030B600A9280000B5
:100130009A289A283A303006031DA728B10A303091
:10014000B000A9280000000000000000000000002E
:10015000000064000130500603197D293030340658
:100160000319B3287629303035060319B8286F29CA
:10017000310838060319BD286829300837060319E5
:10018000C228612933083A060319C7285A293208B8
:1001900039060319CC2853290130C200D328003076
:1001A000D000C200D92867223F18CF280130D000E4
:1001B0000000FE21452145288207E528EC28F32888
:1001C000FA28012908290F2908004D3033214F3022
:1001D00033214E303321152954303321553033210A
:1001E00045303321152957303321453033214430F0
:1001F00033211529543033214830332155303321F0
:100200001529463033215230332149303321152905
:1002100053303321413033215430332115295330A9
:100220003321553033214E303321080001303B213A
:100230006722C108031D1629C30A9B2A0800013042
:100240003B216722C108031D1F290830C300702B02
:10025000080001303B216722C108031D292909300C
:10026000C300A82B08000313831286000715013072
:100270003B210711080003138312A700A6016400A5
:10028000A60B3F29A70B3F2908000330A300EB3042
:10029000A4000430A500A30B4B296400A40B4B2938
:1002A000A50B4B2908001430A300A30B55296400AB
:1002B0000000D9281630A300A30B5C2964000000BD
:1002C000D9281830A300A30B632964000000D928A3
:1002D0001A30A300A30B6A2964000000D9281C303F
:1002E000A300A30B712964000000D9281E30A300CD
:1002F000A30B782964000000D9282130A300A30BA8
:100300007F2964000000CC280710803033210714B7
:100310009821A6213A303321B421C2213A30332129
:10032000D021DE212030332120303321EC21080080
:1003300001304306031DA329C00A401CA329A0299C
:1003400020303321A529310833210800023043062B
:10035000031DB129C00A401CB129AE292030332128
:10036000B32930083321080003304306031DBF2999
:10037000C00A401CBF29BC2920303321C1293308C1
:100380003321080004304306031DCD29C00A401C58
:10039000CD29CA2920303321CF2932083321080042
:1003A00005304306031DDB29C00A401CDB29D82980
:1003B00020303321DD29350833210800063043067B
:1003C000031DE929C00A401CE929E6292030332110
:1003D000EB2934083321080008304306031DFB29AC
:1003E000C00A401CFB29F42920303321203033215E
:1003F00020303321FD293608DC2008000710C430E6
:1004000033210714462220303321203033210E229D
:100410001C223A3033212A223822080009304306B0
:10042000031D192AC00A401C192A162A203033211C
:100430001B2A3808332108000A304306031D272AE7
:10044000C00A401C272A242A20303321292A3708B1
:10045000332108000B304306031D352AC00A401C17
:10046000352A322A20303321372A3A08332108002E
:100470000C304306031D432AC00A401C432A402A6D
:1004800020303321452A3908332108000130420643
:10049000031D5A2AC00A401C5B2A4E2A88102030AD
:1004A00033212030332120303321203033212030BC
:1004B0003321662A00008814413033214C30332127
:1004C00041303321523033214D3033210800831223
:1004D0000313BB01BC01BD01BE01BF01C101051475
:1004E000851005110508383903197A2A8519BB0AC0
:1004F000051ABE0A051085140511050838390319B7
:10050000832A8519BC0A0510851005150508383998
:1005100003198F2A8519BD0A851ABF0A902A00007F
:100520003B18C10A3C18C10A3D18C10A3E18C10A4D
:100530003F18C10A080067223B18A7223C18FC227A
:100540003D18512B3E185D2B842145219B2A0130FB
:100550003B216722C108031DA72A01304306031966
:10056000C622023043060319CE2203304306031984
:10057000DC22043043060319E42205304306031944
:10058000EC22063043060319F4220800B10A333086
:100590003106031DCD2A3030B1000800B00A3230D8
:1005A00031060319DA2A3A303006031DD92A3030D1
:1005B000B00008003430D42AB30A36303306031DA5
:1005C000E32A3030B3000800B20A3A303206031D85
:1005D000EB2A3030B2000800B50A36303506031D6C
:1005E000F32A3030B5000800B40A3A303406031D4F
:1005F000FB2A3030B400080001303B216722C108DB
:10060000031DFC2A0130430603191B230230430655
:10061000031923230330430603193123043043060F
:1006200003193923053043060319412306304306D5
:10063000031949230800B1032F303106031D222B73
:100640003230B1000800B0032F303006031D2E2BCE
:100650003230310603192F2B3930B0000800333007
:100660002D2BB3032F303306031D382B3530B30049
:100670000800B2032F303206031D402B3930B20080
:100680000800B5032F303506031D482B3530B50063
:100690000800B4032F303406031D502B3930B4004A
:1006A000080001303B216722C108031D512B063091
:1006B000430603194528C30A9B2A01303B216722C0
:1006C000C108031D5D2B4608B1004508B00048086D
:1006D000B3004708B2004A08B5004908B4004528ED
:1006E00067223B187C2B3C188A2B3D18A12B3E1807
:1006F000982B84214521702B01303B216722C108B2
:10070000031D7C2BB60A07303606031D702B003004
:10071000B600702B01303B216722C108031D8A2BD4
:10072000B603FF303606031D702B0630B600702B63
:1007300001303B216722C108031D982B4B08B600EE
:10074000452801303B216722C108031DA12B452804
:1007500067223B18B4233C18F1233D182E2C3E1879
:100760003A2CFE214521A82B01303B216722C108EC
:10077000031DB42B093043060319CB230A3043066B
:100780000319D3230B3043060319E1230C3043062E
:100790000319E9230800B80A33303806031DD22BA9
:1007A0003030B8000800B70A323038060319DF2BA2
:1007B0003A303706031DDE2B3030B70008003430E6
:1007C000D92BBA0A36303A06031DE82B3030BA006E
:1007D0000800B90A3A303906031DF02B3030B90051
:1007E000080001303B216722C108031DF12B0930AD
:1007F0004306031908240A304306031910240B305A
:10080000430603191E240C3043060319262408004E
:10081000B8032F303806031D0F2C3230B800080003
:10082000B7032F303706031D1B2C3230380603194F
:100830001C2C3930B700080033301A2CBA032F3083
:100840003A06031D252C3530BA000800B9032F30B5
:100850003906031D2D2C3930B900080001303B2129
:100860006722C108031D2E2C0D30430603194528AD
:10087000C30AA82B01303B216722C108031D3A2C73
:100880004D08B8004C08B7004F08BA004E08B90030
:020890004528F9
:0408920000340034FA
:00000001FF
