:020000040000FA
:10000000830100308A00042883168F308100640049
:100010008B018C018D010030860087008900F8304B
:100020008500003088000F3081009F019F141F154C
:100030008312BB01BC01BD01BE01C3018701880160
:10004000013095200F309D206400383095200F300E
:100050009D20063095200F309D200C3095200F30CC
:100060009D203030B000B100B200B300B400B50044
:10007000B700B800B900BA000030B6000030D100B7
:100080003108C6003008C5003308C8003208C70070
:100090003508CA003408C9003608CB000030D0004B
:1000A0003C213B1863293C182B2AA720B40A3A307C
:1000B0003406031D8C283030B400B50A36303506BE
:1000C000031D8C283030B500B20A3A303206031DC9
:1000D0008C283030B200B30A36303306031D8C282A
:1000E0003030B300B00A34303006031D852832307A
:1000F0003106031D85283030B000B100B60A073044
:100100003606031D8C280030B6003A303006031D39
:100110008C28B10A3030B0006400FF309D20FF30E1
:100120009D20FF309D20E520402803138312860088
:10013000071501309D200711080003138312A70043
:10014000A6016400A60BA128A70BA1280800071090
:1001500080309520071400305006031DB628D10AC0
:10016000511CB628B32820309520B9283108952095
:10017000B92801305006031DC428D10A511CC428D7
:10018000C12820309520C72830089520C7283A304C
:10019000952002305006031DD328D10A511CD328C4
:1001A000D1282030D5283308D5289520320895202D
:1001B0003A30952035089520340895202030952038
:1001C000203095203608022108000710C430952001
:1001D0000714413095204C30952041309520523005
:1001E00095204D30952020309520203095203808DE
:1001F0009520370895203A3095203A0895203908FF
:100200009520080082070B2912291929202927295E
:100210002E29352908004D3095204F3095204E303D
:1002200095203B2954309520553095204530952018
:100230003B295730952045309520443095203B2967
:100240005430952048309520553095203B29463034
:10025000952052309520493095203B2953309520E8
:1002600041309520543095203B295330952055300E
:1002700095204E309520080083120313BB01BC016A
:10028000BD01BE01C30105148510051105083839EB
:1002900003194E298519BB0A051ABE0A05108514D3
:1002A000051105083839031957298519BC0A0510A5
:1002B0008510051505083839031908008519BD0A88
:1002C000851AC30A08003C213B186E213C18C12145
:1002D0003D18142A3E181E2AA7206329FF309D20AE
:1002E000FF309D200030500603198B21013050064D
:1002F00003199321023050060319A121033050063F
:100300000319A921043050060319B1210530500604
:100310000319B9210800B10A33303106031D080062
:100320003030B1000800B00A3230310603199F297D
:100330003A303006031D08003030B0000800343079
:100340009929B30A36303306031D08003030B30054
:100350000800B20A3A303206031D08003030B200FD
:100360000800B50A36303506031D08003030B500E8
:100370000800B40A3A303406031D08003030B400D7
:100380000800FF309D20FF309D20003050060319EB
:10039000DE21013050060319E62102305006031910
:1003A000F421033050060319FC21043050060319D0
:1003B00004220530500603190C220800B1032F3027
:1003C0003106031D08003230B1000800B0032F30A1
:1003D0003006031D0800323031060319F229393086
:1003E000B00008003330F029B3032F303306031D6B
:1003F00008003530B3000800B2032F303206031D69
:1004000008003930B2000800B5032F303506031D4F
:1004100008003530B5000800B4032F303406031D42
:1004200008003930B4000800FF309D20FF309D20C7
:100430000630500603194028D00A63294608B10047
:100440004508B0004808B3004708B2004A08B500A4
:100450004908B40040283C213B18392A3C18452A59
:100460003E18402807108A30952007144B080221B7
:100470002B2AFF309D20FF309D20CB0A07304B06F2
:10048000031D2B2A0030CB002B2AFF309D20FF308C
:100490009D20CB0A00304B06031D2B2A0630CB00D3
:0204A0002B2A05
:0404A20000340034EE
:00000001FF
