:020000040000FA
:10000000830100308A00042883168F308100640049
:100010008B018C018D010030860087008900F8304B
:100020008500003088000F3081009F019F141F154C
:100030008312BB01BC01BD01BE01BF01C001C101F2
:10004000C201C301870188010130C8200F30D020D0
:1000500064003830C8200F30D0200630C8200F3060
:10006000D0200C30C8200F30D0203330B0003230D8
:10007000B1003030B2003530B3003030B400B500DC
:10008000B700B800B900BA00C500C600C700C80074
:10009000C900CA00CC00CD00CE00CF000030B600B1
:1000A000CB0032213B18DA2007108030C82007141B
:1000B0003108C8203008C8203A30C8203308C8208A
:1000C0003208C8203A30C8203508C8203408C82073
:1000D0002030C8202030C8203608F820B40A3A3032
:1000E0003406031DA4283030B400B50A3630350676
:1000F000031DA4283030B500B20A3A303206031D81
:10010000A4283030B200B30A36303306031DA428C9
:100110003030B300B00A34303006031D9D28323031
:100120003106031D9D283030B000B100B60A0730FB
:100130003606031DA4280030B6003A303006031DF1
:10014000A428B10A3030B0006400FF30D020FF3066
:10015000D020FF30D0200710C430C8200714413011
:10016000C8204C30C8204130C8205230C8204D3003
:10017000C8202030C8202030C8203808C8203708C0
:10018000C8203A30C8203A08C8203908C820512869
:1001900003138312860007150130D02007110800D1
:1001A00003138312A700A6016400A60BD428A70B93
:1001B000D42808003221FF30D020FF30D0203B1857
:1001C000C60A3E18512807108030C8200714460878
:1001D000C8204508C8203A30C8204808C820470829
:1001E000C8203A30C8204A08C8204908C820DA2860
:1001F0008207012908290F2916291D2924292B29BD
:1002000008004D30C8204F30C8204E30C82031295A
:100210005430C8205530C8204530C82031295730C7
:10022000C8204530C8204430C82031295430C82067
:100230004830C8205530C82031294630C8205230B7
:10024000C8204930C82031295330C8204130C82047
:100250005430C82031295330C8205530C8204E3082
:10026000C820080083120313BB01BC01BD01BE01FD
:10027000BF01C001C101C201C301051485100511F0
:100280000508383903194A298519BB0A051ABE0A17
:10029000851AC10A05108514051105083839031996
:1002A00057298519BC0A051ABF0A851AC20A051002
:1002B0008510051505083839031908008519BD0A88
:1002C000051AC00A851AC30A08005128C400640030
:0602D000C40B67290800C1
:0402D60000340034BC
:00000001FF
