:020000040000FA
:10000000830100308A00042883168F308100640049
:100010008B018C018D010030860087008900F8304B
:100020008500003088000F3081009F019F141F154C
:100030008312BB01BC01BD01BE01BF01C001C101F2
:10004000C201C301870188010130CA200F30D220CC
:1000500064003830CA200F30D2200630CA200F305A
:10006000D2200C30CA200F30D2203330B0003230D2
:10007000B1003030B2003530B3003030B400B500DC
:10008000B700B800B900BA00C500C600C700C80074
:10009000C900CA00CC00CD00CE00CF000030B600B1
:1000A000CB003030D00036213B18DC2007108030E8
:1000B000CA2007143108CA203008CA203A30CA20A2
:1000C0003308CA203208CA203A30CA203508CA206C
:1000D0003408CA202030CA202030CA203608FC202C
:1000E000B40A3A303406031DA6283030B400B50AED
:1000F00036303506031DA6283030B500B20A3A3036
:100100003206031DA6283030B200B30A363033065B
:10011000031DA6283030B300B00A34303006031D6A
:100120009F2832303106031D9F283030B000B100C7
:10013000B60A07303606031DA6280030B6003A304E
:100140003006031DA628B10A3030B0006400FF302D
:10015000D220FF30D220FF30D2200710C430CA2076
:1001600007144130CA204C30CA204130CA205230D6
:10017000CA204D30CA202030CA202030CA2038087A
:10018000CA203708CA203A30CA203A08CA2039089B
:10019000CA20512803138312860007150130D2208C
:1001A0000711080003138312A700A6016400A60B21
:1001B000D628A70BD62808003621FF30D220FF30E2
:1001C000D2203B1869213D1876293E185128071086
:1001D0008030CA2007144608CA204508CA203A3091
:1001E000CA204808CA204708CA203A30CA204A080C
:1001F000CA204908CA20DC28820705290C291329AE
:100200001A29212928292F2908004D30CA204F30CA
:10021000CA204E30CA2035295430CA205530CA2051
:100220004530CA2035295730CA204530CA204430CD
:10023000CA2035295430CA204830CA205530CA2037
:1002400035294630CA205230CA204930CA203529C3
:100250005330CA204130CA205430CA203529533087
:10026000CA205530CA204E30CA200800831203131A
:10027000BB01BC01BD01BE01BF01C001C101C20182
:10028000C3010514851005110508383903194E29D5
:100290008519BB0A051ABE0A851AC10A05108514FC
:1002A00005110508383903195B298519BC0A051A97
:1002B000BF0A851AC20A05108510051505083839C8
:1002C000031908008519BD0A051AC00A851AC30A50
:1002D00008003030500603196E210800C60A33307A
:1002E0004606031D08003030C600080030305006B6
:1002F00003197C21D00A51284608B1000800512872
:0A030000C4006400C40B812908004A
:04030A000034003487
:00000001FF
