:020000040000FA
:10000000830100308A00042883168F308100640049
:100010008B018C018D010030860087008900F8304B
:100020008500003088000F3081009F019F141F154C
:100030008312BB01BC01BD01BE01BF01C001C101F2
:10004000C201C301870188010130C9200F30D120CE
:1000500064003830C9200F30D1200630C9200F305D
:10006000D1200C30C9200F30D1203030B000B10089
:10007000B200B300B400B500B700B800B900BA00D0
:100080000030B6003030D000C500C600C700C80040
:10009000C900CA00CC00CD00CE00CF000030CB009C
:1000A00059213B18DB283C18332907108030C92020
:1000B00007143108C9203008C9203A30C920330854
:1000C000C9203208C9203A30C9203508C92034086F
:1000D000C9202030C9202030C9203608F920B40AB0
:1000E0003A303406031DA5283030B400B50A363046
:1000F0003506031DA5283030B500B20A3A30320665
:10010000031DA5283030B200B30A36303306031D74
:10011000A5283030B300B00A34303006031D9E28C5
:1001200032303106031D9E283030B000B100B60ACF
:1001300007303606031DA5280030B6003A303006D9
:10014000031DA528B10A3030B0006400FF30D12073
:10015000FF30D120FF30D1200710C430C920071450
:100160004130C9204C30C9204130C9205230C9200B
:100170004D30C9202030C9202030C9203808C9207E
:100180003708C9203A30C9203A08C9203908C9209F
:10019000422803138312860007150130D12007116E
:1001A000080003138312A700A6016400A60BD5283C
:1001B000A70BD528080059213B1882213C18D521CE
:1001C0003D18282A3E18422807108030C9200714FD
:1001D0004608C9204508C9203A30C9204808C92026
:1001E0004708C9203A30C9204A08C9204908C9200F
:1001F000DB28820702290929102917291E29252908
:100200002C2908004D30C9204F30C9204E30C9205C
:1002100032295430C9205530C9204530C9203229EF
:100220005730C9204530C9204430C92032295430C4
:10023000C9204830C9205530C92032294630C9204C
:100240005230C9204930C92032295330C9204130A9
:10025000C9205430C92032295330C9205530C92013
:100260004E30C920080059213B1841293C184D291E
:100270003E18422807108A30C92007144B08F9207D
:100280003329FF30D120FF30D120CB0A07304B0675
:10029000031D33290030CB003329FF30D120FF303C
:1002A000D120CB0A00304B06031D33290630CB008A
:1002B000332983120313BB01BC01BD01BE01BF0181
:1002C000C001C101C201C301051485100511050853
:1002D000383903196F298519BB0A051ABE0A05109A
:1002E0008514051105083839031978298519BC0AC0
:1002F00005108510051505083839031908008519FA
:10030000BD0A0800FF30D120FF30D1203030500628
:1003100003199F21313050060319A72132305006AE
:100320000319B521333050060319BD21343050066E
:100330000319C521353050060319CD210800C60A1E
:1003400033304606031D08003030C6000800C50AD9
:10035000323046060319B3293A304506031D08001A
:100360003030C50008003430AD29C80A36304806A0
:10037000031D08003030C8000800C70A3A3047069D
:10038000031D08003030C7000800CA0A36304A068C
:10039000031D08003030CA000800C90A3A30490677
:1003A000031D08003030C9000800FF30D120FF30A5
:1003B000D120303050060319F22131305006031994
:1003C000FA2132305006031908223330500603193F
:1003D0001022343050060319182235305006031904
:1003E00020220800C6032F304606031D08003230C5
:1003F000C6000800C5032F304506031D0800323033
:1004000046060319062A3930C50008003330042A8D
:10041000C8032F304806031D08003530C800080007
:10042000C7032F304706031D08003930C7000800F6
:10043000CA032F304A06031D08003530CA000800E1
:10044000C9032F304906031D08003930C9000800D0
:10045000FF30D120FF30D120363050060319322A28
:10046000D00ADB284608B1004508B0004808B300B0
:100470004708B2004A08B5004908B400422842289B
:0A048000C4006400C40B412A080008
:04048A000034003406
:00000001FF
