:020000040000FA
:10000000830100308A00042883168F308100640049
:100010008B018C018D010030860087008900F8304B
:100020008500003088000F3081009F019F141F154C
:100030008312BB01BC01BD01BE01C3018701880160
:10004000013095200F309D206400383095200F300E
:100050009D20063095200F309D200C3095200F30CC
:100060009D203030B000B100B200B300B400B50044
:10007000B700B800B900BA000030B6000030D100B7
:100080003108C6003008C5003308C8003208C70070
:100090003508CA003408C9003608CB003030D0001B
:1000A00025213B184C293C18142AA720B40A3A30C1
:1000B0003406031D8C283030B400B50A36303506BE
:1000C000031D8C283030B500B20A3A303206031DC9
:1000D0008C283030B200B30A36303306031D8C282A
:1000E0003030B300B00A34303006031D852832307A
:1000F0003106031D85283030B000B100B60A073044
:100100003606031D8C280030B6003A303006031D39
:100110008C28B10A3030B0006400FF309D20FF30E1
:100120009D20FF309D20CE2040280313831286009F
:10013000071501309D200711080003138312A70043
:10014000A6016400A60BA128A70BA1280800071090
:1001500080309520071430305006031DB628D10A90
:10016000511CB628B3202030952008003108952076
:10017000B928300895203A30952033089520320868
:1001800095203A3095203508952034089520203068
:100190009520203095203608EB2008000710C43049
:1001A00095200714413095204C3095204130952002
:1001B000523095204D3095202030952020309520CC
:1001C00038089520370895203A3095203A08952030
:1001D0003908952008008207F428FB2802290929FC
:1001E000102917291E2908004D3095204F309520E1
:1001F0004E30952024295430952055309520453097
:10020000952024295730952045309520443095205D
:1002100024295430952048309520553095202429A4
:10022000463095205230952049309520242953306E
:100230009520413095205430952024295330952025
:10024000553095204E309520080083120313BB01D2
:10025000BC01BD01BE01C3010514851005110508CF
:100260003839031937298519BB0A051ABE0A051042
:100270008514051105083839031940298519BC0A68
:10028000051085100515050838390319080085196A
:10029000BD0A851AC30A080025213B1857213C18BE
:1002A000AA213D18FD293E18072AA7204C29FF3016
:1002B0009D20FF309D2030305006031974213130CD
:1002C000500603197C213230500603198A2133303D
:1002D0005006031992213430500603199A21353003
:1002E00050060319A2210800B10A33303106031D5C
:1002F00008003030B1000800B00A3230310603196E
:1003000088293A303006031D08003030B00008005C
:1003100034308229B30A36303306031D08003030EA
:10032000B3000800B20A3A303206031D080030302C
:10033000B2000800B50A36303506031D080030301B
:10034000B5000800B40A3A303406031D0800303006
:10035000B4000800FF309D20FF309D203030500653
:100360000319C721313050060319CF21323050060E
:100370000319DD21333050060319E52134305006CE
:100380000319ED21353050060319F5210800B1039A
:100390002F303106031D08003230B1000800B003D1
:1003A0002F303006031D0800323031060319DB29D7
:1003B0003930B00008003330D929B3032F30330669
:1003C000031D08003530B3000800B2032F30320699
:1003D000031D08003930B2000800B5032F30350680
:1003E000031D08003530B5000800B4032F30340673
:1003F000031D08003930B4000800FF309D20FF3095
:100400009D203630500603194028D00A4C29460852
:10041000B1004508B0004808B3004708B2004A08D8
:10042000B5004908B400402825213B18222A3C1871
:100430002E2A3E18402807108A30952007144B08B2
:10044000EB20142AFF309D20FF309D20CB0A07307F
:100450004B06031D142A0030CB00142AFF309D20C8
:10046000FF309D20CB0A00304B06031D142A0630B6
:04047000CB00142A7F
:04047400003400341C
:00000001FF
