:020000040000FA
:10000000830100308A00042883168F308100640049
:100010008B018C018D010030860087008900F8304B
:100020008500003088000F3081009F019F141F154C
:100030008312BB01BC01BD01BE01BF01C10187012B
:100040008801013020210F30282164003830202120
:100050000F302821063020210F3028210C3020219C
:100060000F3028213030B000B100B200B300B4002E
:10007000B500B700B800B900BA000030B600C20041
:10008000D0000030C0000030C2003108C600300887
:10009000C5003308C8003208C7003508CA00340854
:1000A000C9003608CB000030C3003708CC00380840
:1000B000CD003908CE003A08CF0012223B180321A8
:1000C0003C180C213D1816213221B40A3A3034066E
:1000D000031D9B283030B400B50A36303506031DA9
:1000E0009B283030B500B20A3A303206031D9B28F7
:1000F0003030B200B30A36303306031D9B2830304F
:10010000B300B00A34303006031D94283230310673
:10011000031D94283030B000B100B60A073036060F
:10012000031D9B280030B6003A303006031D9B2883
:10013000B10A3030B0006400310838060319A12834
:10014000B328300837060319A628B32833083A061F
:100150000319AB28B328320839060319B028B3288D
:100160000130C200BC28013050060319BC28C12848
:100170000030D000C200C12812223F18B828013038
:10018000D000AC21FF302821FF302821FF3028216A
:1001900043288207D228D928E028E728EE28F52826
:1001A000FC2808004D3020214F3020214E302021E6
:1001B00002295430202155302021453020210229A8
:1001C000573020214530202144302021022954304D
:1001D000202148302021553020210229463020217D
:1001E0005230202149302021022953302021413032
:1001F0002021543020210229533020215530202144
:100200004E3020210800FF3028211222C108031D92
:100210000329C30A442A0800FF3028211222C108FA
:10022000031D0C290830C300182B0800FF302821BB
:100230001222C108031D16290930C3004F2B0800E4
:1002400003138312860007150130282107110800C7
:1002500003138312A700A6016400A60B2C29A70B89
:100260002C29080007108030202107144621542132
:100270003A302021622170213A3020217E218C21C8
:1002800020302021203020219A210800013043060F
:10029000031D5129C00A401C51294E29203020211C
:1002A000532931082021080002304306031D5F292D
:1002B000C00A401C5F295C292030202161293008B8
:1002C0002021080003304306031D6D29C00A401C8D
:1002D0006D296A29203020216F2933082021080048
:1002E00004304306031D7B29C00A401C7B29782962
:1002F000203020217D2932082021080005304306C6
:10030000031D8929C00A401C892986292030202103
:100310008B2935082021080006304306031D972944
:10032000C00A401C9729942920302021992934089B
:100330002021080008304306031DA929C00A401CDB
:10034000A929A2292030202120302021203020215D
:10035000AB293608C92008000710C4302021071433
:10036000F4212030202120302021BC21CA213A3024
:100370002021D821E621080009304306031DC729A2
:10038000C00A401CC729C42920302021C9293808A7
:10039000202108000A304306031DD529C00A401C4D
:1003A000D529D22920302021D7293708202108003B
:1003B0000B304306031DE329C00A401CE329E02952
:1003C00020302021E5293A08202108000C3043067E
:1003D000031DF129C00A401CF129EE2920302021FB
:1003E000F32939082021080001304206031D072A9D
:1003F000C00A401C072AFC2920302021203020215F
:10040000203020212030202120302021112A41308D
:1004100020214C30202141302021523020214D30EC
:100420002021080083120313BB01BC01BD01BE01E2
:10043000BF01C101051485100511050838390319DC
:10044000252A8519BB0A051ABE0A0510851405114F
:100450000508383903192E2A8519BC0A051085109C
:100460000515050838390319392A8519BD0A851A71
:10047000BF0A3B18C10A3C18C10A3D18C10A3E1800
:10048000C10A3F18C10A080012223B184F223C182B
:10049000A4223D18F92A3E18052B3221442AFF30A8
:1004A00028211222C108031D4F2A013043060319D7
:1004B0006E220230430603197622033043060319E5
:1004C00084220430430603198C22053043060319A5
:1004D00094220630430603199C220800B10A3330E7
:1004E0003106031D752A3030B1000800B00A3230E1
:1004F00031060319822A3A303006031D812A303032
:10050000B000080034307C2AB30A36303306031DAD
:100510008B2A3030B3000800B20A3A303206031D8D
:10052000932A3030B2000800B50A36303506031D74
:100530009B2A3030B5000800B40A3A303406031D57
:10054000A32A3030B4000800FF3028211222C1084D
:10055000031DA42A013043060319C32202304306B7
:100560000319CB22033043060319D9220430430672
:100570000319E122053043060319E9220630430638
:100580000319F1220800B1032F303106031DCA2AD6
:100590003230B1000800B0032F303006031DD62AD8
:1005A000323031060319D72A3930B0000800333011
:1005B000D52AB3032F303306031DE02A3530B300AC
:1005C0000800B2032F303206031DE82A3930B2008A
:1005D0000800B5032F303506031DF02A3530B5006D
:1005E0000800B4032F303406031DF82A3930B40054
:1005F0000800FF3028211222C108031DF92A063005
:10060000430603194328C30A442AFF302821122233
:10061000C108031D052B4608B1004508B000480875
:10062000B3004708B2004A08B5004908B40043289F
:1006300012223B18232B3C18312B3D18482B3E1817
:100640003F2B3221182BFF3028211222C108031D15
:10065000232BB60A07303606031D182B0030B600D0
:10066000182BFF3028211222C108031D312BB6039D
:10067000FF303606031D182B0630B600182BFF304E
:1006800028211222C108031D3F2B4B08B600432826
:10069000FF3028211222C108031D482B43281222B3
:1006A0003B185A233C1897233D18D42B3E18E02BB7
:1006B000AC214F2BFF3028211222C108031D5A2BD9
:1006C00009304306031971230A30430603197923BD
:1006D0000B304306031987230C30430603198F237D
:1006E0000800B80A33303806031D782B3030B800C4
:1006F0000800B70A323038060319852B3A3037061E
:10070000031D842B3030B700080034307F2BBA0A29
:1007100036303A06031D8E2B3030BA000800B90A75
:100720003A303906031D962B3030B9000800FF30EF
:1007300028211222C108031D972B093043060319F3
:10074000AE230A3043060319B6230B3043060319C0
:10075000C4230C3043060319CC230800B8032F3000
:100760003806031DB52B3230B8000800B7032F3010
:100770003706031DC12B323038060319C22B39301E
:10078000B70008003330C02BBA032F303A06031DE0
:10079000CB2B3530BA000800B9032F303906031DC2
:1007A000D32B3930B9000800FF3028211222C108AC
:1007B000031DD42B0D30430603194328C30A4F2BC6
:1007C000FF3028211222C108031DE02B4D08B8007C
:0E07D0004C08B7004F08BA004E08B900432885
:0207DE000034E5
:0207E0000034E3
:00000001FF
