:020000040000FA
:10000000830100308A00042883168F308100640049
:100010008B018C018D010030860087008900F8304B
:1000200085009F019F141F158312C101C201C301E6
:10003000C401C501C601C701C801C9018701D101B9
:100040000130B6200F30BE2064003830B6200F30AB
:10005000BE200630B6200F30BE200C30B6200F3048
:10006000BE203330B0003230B1003930B20035300C
:10007000B3003030B400B500B700B800B900C0001C
:100080000030B60007108030B62007143108B620C3
:100090003008B6203A30B6203308B6203208B620F1
:1000A0003A30B6203508B6203408B6202030B620C5
:1000B0002030B6203608C820B40A3A303406031D72
:1000C00092283030B400B50A36303506031D922828
:1000D0003030B500B20A3A303206031D9228303073
:1000E000B200B30A36303306031D92283030B30015
:1000F000B00A34303006031D8B2832303106031D20
:100100008B283030B000B100B60A07303606031D28
:1001100092280030B6003A303006031D9228B10A0A
:100120003030B0006400FF30BE20FF30BE20FF3012
:10013000BE200710C430B62007144130B6204C3022
:10014000B6204130B6205230B6204D30B620203097
:10015000B6202030B6203808B6203708B6203A300E
:10016000B6204008B6203908B6204228031383126F
:10017000860007150130BE20071108000313831203
:10018000A700A6016400A60BC228A70BC22808007E
:100190008207D128D828DF28E628ED28F428FB2874
:1001A00008004D30B6204F30B6204E30B620012921
:1001B0005430B6205530B6204530B620012957308E
:1001C000B6204530B6204430B62001295430B62040
:1001D0004830B6205530B62001294630B62052307E
:1001E000B6204930B62001295330B6204130B62020
:1001F0005430B62001295330B6205530B6204E3049
:06020000B62008004228B0
:04020600003400348C
:00000001FF
